MPLINK 5.01, LINKER
Linker Map File - Created Fri Jun 20 15:18:34 2014

                                 Section Info
                  Section       Type    Address   Location Size(Bytes)
                ---------  ---------  ---------  ---------  ---------
                  STARTUP       code   0x000000    program   0x000002
                      IRQ       code   0x000004    program   0x000006
                   .cinit    romdata   0x000020    program   0x000004
                     PROG       code   0x000023    program   0x0003d8
                       IO       code   0x000470    program   0x00027e
                      DEL       code   0x000600    program   0x000050
                      LIB       code   0x000650    program   0x0000ac
                      LCD       code   0x000710    program   0x00014e
.config_2007_BUILD/RED/PRODUCTION/FURNACEMONI       code   0x002007    program   0x000002
.config_2008_BUILD/RED/PRODUCTION/FURNACEMONI       code   0x002008    program   0x000002
                   .udata      udata   0x000020       data   0x00002c
                     SHSP      udata   0x00004c       data   0x000004
                    LCDIO      udata   0x000050       data   0x000002
                    IODAT      udata   0x000052       data   0x000002
                     DELS      udata   0x000054       data   0x000002



                              Program Memory Usage 
                               Start         End      
                           ---------   ---------      
                            0x000000    0x000000      
                            0x000004    0x000006      
                            0x000020    0x000021      
                            0x000023    0x00020e      
                            0x000470    0x0005ae      
                            0x000600    0x000627      
                            0x000650    0x0006a5      
                            0x000710    0x0007b6      
                            0x002007    0x002008      
            1112 out of 2054 program addresses used, program memory utilization is 54%



                              Symbols - Sorted by Name
                     Name    Address   Location    Storage File                     
                ---------  ---------  ---------  --------- ---------                
               BinToBCD16   0x000683    program     extern /home/jjmcd/Projects/PIC/PIC16/FurnaceMonitor1821.X/binBCD16.asm
               Delay100us   0x000600    program     extern /home/jjmcd/Projects/PIC/PIC16/FurnaceMonitor1821.X/del100us.asm
                Delay10us   0x00060b    program     extern /home/jjmcd/Projects/PIC/PIC16/FurnaceMonitor1821.X/del10us.asm
                 Delay1ms   0x000612    program     extern /home/jjmcd/Projects/PIC/PIC16/FurnaceMonitor1821.X/del1ms.asm
               Delay1ms32   0x00061d    program     extern /home/jjmcd/Projects/PIC/PIC16/FurnaceMonitor1821.X/del1ms32.asm
                   LCDCls   0x000755    program     extern /home/jjmcd/Projects/PIC/PIC16/FurnaceMonitor1821.X/LCD.asm
                  LCDInit   0x000763    program     extern /home/jjmcd/Projects/PIC/PIC16/FurnaceMonitor1821.X/LCD.asm
                   LCDPos   0x000735    program     extern /home/jjmcd/Projects/PIC/PIC16/FurnaceMonitor1821.X/LCD.asm
             LCDWriteByte   0x000710    program     extern /home/jjmcd/Projects/PIC/PIC16/FurnaceMonitor1821.X/LCD.asm
              MasterReset   0x000470    program     extern /home/jjmcd/Projects/PIC/PIC16/FurnaceMonitor1821.X/masterReset.asm
             MasterReset2   0x000513    program     extern /home/jjmcd/Projects/PIC/PIC16/FurnaceMonitor1821.X/SecondDS.asm
               PollStatus   0x00047d    program     extern /home/jjmcd/Projects/PIC/PIC16/FurnaceMonitor1821.X/pollStatus.asm
              PollStatus2   0x000520    program     extern /home/jjmcd/Projects/PIC/PIC16/FurnaceMonitor1821.X/SecondDS.asm
                 ReadByte   0x000485    program     extern /home/jjmcd/Projects/PIC/PIC16/FurnaceMonitor1821.X/readBYTE.asm
                ReadByte2   0x000528    program     extern /home/jjmcd/Projects/PIC/PIC16/FurnaceMonitor1821.X/SecondDS.asm
                 SendByte   0x0004c5    program     extern /home/jjmcd/Projects/PIC/PIC16/FurnaceMonitor1821.X/sendByte.asm
                SendByte2   0x000568    program     extern /home/jjmcd/Projects/PIC/PIC16/FurnaceMonitor1821.X/SecondDS.asm
                  ShowBCD   0x000023    program     extern /home/jjmcd/Projects/PIC/PIC16/FurnaceMonitor1821.X/showBCD.asm
               _divS16_16   0x000650    program     extern /home/jjmcd/Projects/PIC/PIC16/FurnaceMonitor1821.X/_divS16.asm
                   adjBCD   0x00069b    program     static /home/jjmcd/Projects/PIC/PIC16/FurnaceMonitor1821.X/binBCD16.asm
               calcDeltas   0x000113    program     extern /home/jjmcd/Projects/PIC/PIC16/FurnaceMonitor1821.X/calcDeltas.asm
                 continue   0x000205    program     static /home/jjmcd/Projects/PIC/PIC16/FurnaceMonitor1821.X/FurnaceMonitor1821.asm
                 convert1   0x000061    program     extern /home/jjmcd/Projects/PIC/PIC16/FurnaceMonitor1821.X/convert1.asm
                 convert2   0x0000ba    program     extern /home/jjmcd/Projects/PIC/PIC16/FurnaceMonitor1821.X/convert2.asm
                  getTemp   0x000040    program     extern /home/jjmcd/Projects/PIC/PIC16/FurnaceMonitor1821.X/getTemp.asm
                 getTemp2   0x0004f2    program     extern /home/jjmcd/Projects/PIC/PIC16/FurnaceMonitor1821.X/SecondDS.asm
                 init1821   0x0004ea    program     extern /home/jjmcd/Projects/PIC/PIC16/FurnaceMonitor1821.X/init1821.asm
                init18212   0x00058d    program     extern /home/jjmcd/Projects/PIC/PIC16/FurnaceMonitor1821.X/SecondDS.asm
                interrupt   0x000004    program     static /home/jjmcd/Projects/PIC/PIC16/FurnaceMonitor1821.X/FurnaceMonitor1821.asm
                     m001   0x000659    program     static /home/jjmcd/Projects/PIC/PIC16/FurnaceMonitor1821.X/_divS16.asm
                     m002   0x000663    program     static /home/jjmcd/Projects/PIC/PIC16/FurnaceMonitor1821.X/_divS16.asm
                     m003   0x00066a    program     static /home/jjmcd/Projects/PIC/PIC16/FurnaceMonitor1821.X/_divS16.asm
                     m004   0x00066b    program     static /home/jjmcd/Projects/PIC/PIC16/FurnaceMonitor1821.X/_divS16.asm
                     m005   0x000676    program     static /home/jjmcd/Projects/PIC/PIC16/FurnaceMonitor1821.X/_divS16.asm
                     m006   0x00067a    program     static /home/jjmcd/Projects/PIC/PIC16/FurnaceMonitor1821.X/_divS16.asm
                     m007   0x000681    program     static /home/jjmcd/Projects/PIC/PIC16/FurnaceMonitor1821.X/_divS16.asm
                     m008   0x000615    program     static /home/jjmcd/Projects/PIC/PIC16/FurnaceMonitor1821.X/del1ms.asm
                     m008   0x000620    program     static /home/jjmcd/Projects/PIC/PIC16/FurnaceMonitor1821.X/del1ms32.asm
                     m009   0x000617    program     static /home/jjmcd/Projects/PIC/PIC16/FurnaceMonitor1821.X/del1ms.asm
                     m009   0x000622    program     static /home/jjmcd/Projects/PIC/PIC16/FurnaceMonitor1821.X/del1ms32.asm
                     m010   0x000603    program     static /home/jjmcd/Projects/PIC/PIC16/FurnaceMonitor1821.X/del100us.asm
                     m011   0x000605    program     static /home/jjmcd/Projects/PIC/PIC16/FurnaceMonitor1821.X/del100us.asm
                     m012   0x00047d    program     static /home/jjmcd/Projects/PIC/PIC16/FurnaceMonitor1821.X/pollStatus.asm
                     m012   0x000520    program     static /home/jjmcd/Projects/PIC/PIC16/FurnaceMonitor1821.X/SecondDS.asm
                     m014   0x00051a    program     static /home/jjmcd/Projects/PIC/PIC16/FurnaceMonitor1821.X/SecondDS.asm
                     m014   0x000477    program     static /home/jjmcd/Projects/PIC/PIC16/FurnaceMonitor1821.X/masterReset.asm
                     m015   0x000479    program     static /home/jjmcd/Projects/PIC/PIC16/FurnaceMonitor1821.X/masterReset.asm
                     m015   0x00051c    program     static /home/jjmcd/Projects/PIC/PIC16/FurnaceMonitor1821.X/SecondDS.asm
                     m016   0x00051e    program     static /home/jjmcd/Projects/PIC/PIC16/FurnaceMonitor1821.X/SecondDS.asm
                     m016   0x00047b    program     static /home/jjmcd/Projects/PIC/PIC16/FurnaceMonitor1821.X/masterReset.asm
                     m017   0x00056c    program     static /home/jjmcd/Projects/PIC/PIC16/FurnaceMonitor1821.X/SecondDS.asm
                     m017   0x0004c9    program     static /home/jjmcd/Projects/PIC/PIC16/FurnaceMonitor1821.X/sendByte.asm
                     m018   0x0004df    program     static /home/jjmcd/Projects/PIC/PIC16/FurnaceMonitor1821.X/sendByte.asm
                     m018   0x000582    program     static /home/jjmcd/Projects/PIC/PIC16/FurnaceMonitor1821.X/SecondDS.asm
                     m019   0x0004e2    program     static /home/jjmcd/Projects/PIC/PIC16/FurnaceMonitor1821.X/sendByte.asm
                     m019   0x000585    program     static /home/jjmcd/Projects/PIC/PIC16/FurnaceMonitor1821.X/SecondDS.asm
                     m020   0x0004e9    program     static /home/jjmcd/Projects/PIC/PIC16/FurnaceMonitor1821.X/sendByte.asm
                     m020   0x00058c    program     static /home/jjmcd/Projects/PIC/PIC16/FurnaceMonitor1821.X/SecondDS.asm
                     m021   0x00052d    program     static /home/jjmcd/Projects/PIC/PIC16/FurnaceMonitor1821.X/SecondDS.asm
                     m021   0x00048a    program     static /home/jjmcd/Projects/PIC/PIC16/FurnaceMonitor1821.X/readBYTE.asm
                     m022   0x0004a1    program     static /home/jjmcd/Projects/PIC/PIC16/FurnaceMonitor1821.X/readBYTE.asm
                     m022   0x000544    program     static /home/jjmcd/Projects/PIC/PIC16/FurnaceMonitor1821.X/SecondDS.asm
                     m023   0x000547    program     static /home/jjmcd/Projects/PIC/PIC16/FurnaceMonitor1821.X/SecondDS.asm
                     m023   0x0004a4    program     static /home/jjmcd/Projects/PIC/PIC16/FurnaceMonitor1821.X/readBYTE.asm
                     m024   0x00054d    program     static /home/jjmcd/Projects/PIC/PIC16/FurnaceMonitor1821.X/SecondDS.asm
                     m024   0x0004aa    program     static /home/jjmcd/Projects/PIC/PIC16/FurnaceMonitor1821.X/readBYTE.asm
                     m025   0x000564    program     static /home/jjmcd/Projects/PIC/PIC16/FurnaceMonitor1821.X/SecondDS.asm
                     m025   0x0004c1    program     static /home/jjmcd/Projects/PIC/PIC16/FurnaceMonitor1821.X/readBYTE.asm
                     m026   0x000566    program     static /home/jjmcd/Projects/PIC/PIC16/FurnaceMonitor1821.X/SecondDS.asm
                     m026   0x0004c3    program     static /home/jjmcd/Projects/PIC/PIC16/FurnaceMonitor1821.X/readBYTE.asm
                     m027   0x000689    program     static /home/jjmcd/Projects/PIC/PIC16/FurnaceMonitor1821.X/binBCD16.asm
                     m028   0x000691    program     static /home/jjmcd/Projects/PIC/PIC16/FurnaceMonitor1821.X/binBCD16.asm
                     m029   0x00002e    program     static /home/jjmcd/Projects/PIC/PIC16/FurnaceMonitor1821.X/showBCD.asm
                     m030   0x000030    program     static /home/jjmcd/Projects/PIC/PIC16/FurnaceMonitor1821.X/showBCD.asm
                     m031   0x00003c    program     static /home/jjmcd/Projects/PIC/PIC16/FurnaceMonitor1821.X/showBCD.asm
                     m032   0x00003e    program     static /home/jjmcd/Projects/PIC/PIC16/FurnaceMonitor1821.X/showBCD.asm
                     m033   0x000743    program     static /home/jjmcd/Projects/PIC/PIC16/FurnaceMonitor1821.X/LCD.asm
                     m034   0x000747    program     static /home/jjmcd/Projects/PIC/PIC16/FurnaceMonitor1821.X/LCD.asm
                     m035   0x00074b    program     static /home/jjmcd/Projects/PIC/PIC16/FurnaceMonitor1821.X/LCD.asm
                     m036   0x00074c    program     static /home/jjmcd/Projects/PIC/PIC16/FurnaceMonitor1821.X/LCD.asm
                     m037   0x000776    program     static /home/jjmcd/Projects/PIC/PIC16/FurnaceMonitor1821.X/LCD.asm
                     m038   0x00077c    program     static /home/jjmcd/Projects/PIC/PIC16/FurnaceMonitor1821.X/LCD.asm
                     m039   0x00078f    program     static /home/jjmcd/Projects/PIC/PIC16/FurnaceMonitor1821.X/LCD.asm
                     m040   0x0001eb    program     static /home/jjmcd/Projects/PIC/PIC16/FurnaceMonitor1821.X/FurnaceMonitor1821.asm
                     m041   0x0000be    program     static /home/jjmcd/Projects/PIC/PIC16/FurnaceMonitor1821.X/convert2.asm
                     m041   0x000065    program     static /home/jjmcd/Projects/PIC/PIC16/FurnaceMonitor1821.X/convert1.asm
                     m042   0x0000c8    program     static /home/jjmcd/Projects/PIC/PIC16/FurnaceMonitor1821.X/convert2.asm
                     m042   0x00006f    program     static /home/jjmcd/Projects/PIC/PIC16/FurnaceMonitor1821.X/convert1.asm
                     m043   0x0000d4    program     static /home/jjmcd/Projects/PIC/PIC16/FurnaceMonitor1821.X/convert2.asm
                     m043   0x00007b    program     static /home/jjmcd/Projects/PIC/PIC16/FurnaceMonitor1821.X/convert1.asm
                     m044   0x0000e7    program     static /home/jjmcd/Projects/PIC/PIC16/FurnaceMonitor1821.X/convert2.asm
                     m044   0x00008e    program     static /home/jjmcd/Projects/PIC/PIC16/FurnaceMonitor1821.X/convert1.asm
                     m045   0x0000f3    program     static /home/jjmcd/Projects/PIC/PIC16/FurnaceMonitor1821.X/convert2.asm
                     m045   0x00009a    program     static /home/jjmcd/Projects/PIC/PIC16/FurnaceMonitor1821.X/convert1.asm
                     m046   0x0000a8    program     static /home/jjmcd/Projects/PIC/PIC16/FurnaceMonitor1821.X/convert1.asm
                     m046   0x000101    program     static /home/jjmcd/Projects/PIC/PIC16/FurnaceMonitor1821.X/convert2.asm
                     m047   0x0000ab    program     static /home/jjmcd/Projects/PIC/PIC16/FurnaceMonitor1821.X/convert1.asm
                     m047   0x000104    program     static /home/jjmcd/Projects/PIC/PIC16/FurnaceMonitor1821.X/convert2.asm
                     main   0x0001b8    program     static /home/jjmcd/Projects/PIC/PIC16/FurnaceMonitor1821.X/FurnaceMonitor1821.asm
             showExtremes   0x000185    program     extern /home/jjmcd/Projects/PIC/PIC16/FurnaceMonitor1821.X/showExtremes.asm
                   skip01   0x000127    program     static /home/jjmcd/Projects/PIC/PIC16/FurnaceMonitor1821.X/calcDeltas.asm
                   skip02   0x00012a    program     static /home/jjmcd/Projects/PIC/PIC16/FurnaceMonitor1821.X/calcDeltas.asm
                   skip03   0x00012e    program     static /home/jjmcd/Projects/PIC/PIC16/FurnaceMonitor1821.X/calcDeltas.asm
                   skip04   0x000138    program     static /home/jjmcd/Projects/PIC/PIC16/FurnaceMonitor1821.X/calcDeltas.asm
                   skip05   0x00013b    program     static /home/jjmcd/Projects/PIC/PIC16/FurnaceMonitor1821.X/calcDeltas.asm
                   skip06   0x00013f    program     static /home/jjmcd/Projects/PIC/PIC16/FurnaceMonitor1821.X/calcDeltas.asm
                   skip07   0x000149    program     static /home/jjmcd/Projects/PIC/PIC16/FurnaceMonitor1821.X/calcDeltas.asm
                   skip08   0x00014c    program     static /home/jjmcd/Projects/PIC/PIC16/FurnaceMonitor1821.X/calcDeltas.asm
                   skip09   0x000150    program     static /home/jjmcd/Projects/PIC/PIC16/FurnaceMonitor1821.X/calcDeltas.asm
                   skip10   0x00015a    program     static /home/jjmcd/Projects/PIC/PIC16/FurnaceMonitor1821.X/calcDeltas.asm
                   skip11   0x00015d    program     static /home/jjmcd/Projects/PIC/PIC16/FurnaceMonitor1821.X/calcDeltas.asm
                   skip12   0x000161    program     static /home/jjmcd/Projects/PIC/PIC16/FurnaceMonitor1821.X/calcDeltas.asm
                   skip13   0x00016b    program     static /home/jjmcd/Projects/PIC/PIC16/FurnaceMonitor1821.X/calcDeltas.asm
                   skip14   0x00016e    program     static /home/jjmcd/Projects/PIC/PIC16/FurnaceMonitor1821.X/calcDeltas.asm
                   skip15   0x000172    program     static /home/jjmcd/Projects/PIC/PIC16/FurnaceMonitor1821.X/calcDeltas.asm
                   skip16   0x00017c    program     static /home/jjmcd/Projects/PIC/PIC16/FurnaceMonitor1821.X/calcDeltas.asm
                   skip17   0x00017f    program     static /home/jjmcd/Projects/PIC/PIC16/FurnaceMonitor1821.X/calcDeltas.asm
                   skip18   0x000183    program     static /home/jjmcd/Projects/PIC/PIC16/FurnaceMonitor1821.X/calcDeltas.asm
                    wait0   0x0001fe    program     static /home/jjmcd/Projects/PIC/PIC16/FurnaceMonitor1821.X/FurnaceMonitor1821.asm
                       B0   0x000025       data     extern /home/jjmcd/Projects/PIC/PIC16/FurnaceMonitor1821.X/binBCD16.asm
                       B1   0x000026       data     extern /home/jjmcd/Projects/PIC/PIC16/FurnaceMonitor1821.X/binBCD16.asm
                       R0   0x000027       data     extern /home/jjmcd/Projects/PIC/PIC16/FurnaceMonitor1821.X/binBCD16.asm
                       R1   0x000028       data     extern /home/jjmcd/Projects/PIC/PIC16/FurnaceMonitor1821.X/binBCD16.asm
                       R2   0x000029       data     extern /home/jjmcd/Projects/PIC/PIC16/FurnaceMonitor1821.X/binBCD16.asm
                   arg1_8   0x00004c       data     extern /home/jjmcd/Projects/PIC/PIC16/FurnaceMonitor1821.X/_divS16.asm
                   arg2_8   0x00004e       data     extern /home/jjmcd/Projects/PIC/PIC16/FurnaceMonitor1821.X/_divS16.asm
                       bi   0x00004c       data     static /home/jjmcd/Projects/PIC/PIC16/FurnaceMonitor1821.X/SecondDS.asm
                       bi   0x00004c       data     static /home/jjmcd/Projects/PIC/PIC16/FurnaceMonitor1821.X/readBYTE.asm
                      buf   0x00004d       data     static /home/jjmcd/Projects/PIC/PIC16/FurnaceMonitor1821.X/SecondDS.asm
                      buf   0x00004d       data     static /home/jjmcd/Projects/PIC/PIC16/FurnaceMonitor1821.X/readBYTE.asm
                     buff   0x000051       data     extern /home/jjmcd/Projects/PIC/PIC16/FurnaceMonitor1821.X/FurnaceMonitor1821.asm
                   buff_2   0x00004e       data     extern /home/jjmcd/Projects/PIC/PIC16/FurnaceMonitor1821.X/FurnaceMonitor1821.asm
                       by   0x00004c       data     static /home/jjmcd/Projects/PIC/PIC16/FurnaceMonitor1821.X/SecondDS.asm
                       by   0x00004c       data     static /home/jjmcd/Projects/PIC/PIC16/FurnaceMonitor1821.X/FurnaceMonitor1821.asm
                       by   0x00004c       data     static /home/jjmcd/Projects/PIC/PIC16/FurnaceMonitor1821.X/sendByte.asm
                    count   0x000053       data     static /home/jjmcd/Projects/PIC/PIC16/FurnaceMonitor1821.X/SecondDS.asm
                    count   0x000053       data     static /home/jjmcd/Projects/PIC/PIC16/FurnaceMonitor1821.X/sendByte.asm
                    count   0x000053       data     static /home/jjmcd/Projects/PIC/PIC16/FurnaceMonitor1821.X/readBYTE.asm
                 countdeg   0x000032       data     extern /home/jjmcd/Projects/PIC/PIC16/FurnaceMonitor1821.X/FurnaceMonitor1821.asm
                countdeg2   0x00003c       data     extern /home/jjmcd/Projects/PIC/PIC16/FurnaceMonitor1821.X/FurnaceMonitor1821.asm
               counter_13   0x00004c       data     static /home/jjmcd/Projects/PIC/PIC16/FurnaceMonitor1821.X/binBCD16.asm
                counter_8   0x000023       data     static /home/jjmcd/Projects/PIC/PIC16/FurnaceMonitor1821.X/_divS16.asm
                 countrem   0x000030       data     extern /home/jjmcd/Projects/PIC/PIC16/FurnaceMonitor1821.X/FurnaceMonitor1821.asm
                countrem2   0x00003a       data     extern /home/jjmcd/Projects/PIC/PIC16/FurnaceMonitor1821.X/FurnaceMonitor1821.asm
                      dat   0x000050       data     extern /home/jjmcd/Projects/PIC/PIC16/FurnaceMonitor1821.X/FurnaceMonitor1821.asm
                      del   0x000055       data     static /home/jjmcd/Projects/PIC/PIC16/FurnaceMonitor1821.X/del1ms.asm
                      del   0x000055       data     static /home/jjmcd/Projects/PIC/PIC16/FurnaceMonitor1821.X/del1ms32.asm
                      del   0x000055       data     static /home/jjmcd/Projects/PIC/PIC16/FurnaceMonitor1821.X/del100us.asm
                    delay   0x000054       data     static /home/jjmcd/Projects/PIC/PIC16/FurnaceMonitor1821.X/del1ms.asm
                    delay   0x000054       data     static /home/jjmcd/Projects/PIC/PIC16/FurnaceMonitor1821.X/del1ms32.asm
                  delay_2   0x000054       data     static /home/jjmcd/Projects/PIC/PIC16/FurnaceMonitor1821.X/del100us.asm
                    delta   0x000046       data     extern /home/jjmcd/Projects/PIC/PIC16/FurnaceMonitor1821.X/FurnaceMonitor1821.asm
                        i   0x00004c       data     extern /home/jjmcd/Projects/PIC/PIC16/FurnaceMonitor1821.X/FurnaceMonitor1821.asm
                      i_2   0x00004c       data     static /home/jjmcd/Projects/PIC/PIC16/FurnaceMonitor1821.X/convert1.asm
                      i_2   0x00004c       data     static /home/jjmcd/Projects/PIC/PIC16/FurnaceMonitor1821.X/convert2.asm
                      i_2   0x000034       data     static /home/jjmcd/Projects/PIC/PIC16/FurnaceMonitor1821.X/FurnaceMonitor1821.asm
                  lcdport   0x000020       data     static /home/jjmcd/Projects/PIC/PIC16/FurnaceMonitor1821.X/LCD.asm
                     mask   0x000052       data     static /home/jjmcd/Projects/PIC/PIC16/FurnaceMonitor1821.X/SecondDS.asm
                     mask   0x000052       data     static /home/jjmcd/Projects/PIC/PIC16/FurnaceMonitor1821.X/sendByte.asm
                     mask   0x000052       data     static /home/jjmcd/Projects/PIC/PIC16/FurnaceMonitor1821.X/readBYTE.asm
                     max1   0x000040       data     extern /home/jjmcd/Projects/PIC/PIC16/FurnaceMonitor1821.X/FurnaceMonitor1821.asm
                     max2   0x000044       data     extern /home/jjmcd/Projects/PIC/PIC16/FurnaceMonitor1821.X/FurnaceMonitor1821.asm
                 maxdelta   0x00004a       data     extern /home/jjmcd/Projects/PIC/PIC16/FurnaceMonitor1821.X/FurnaceMonitor1821.asm
                     min1   0x00003e       data     extern /home/jjmcd/Projects/PIC/PIC16/FurnaceMonitor1821.X/FurnaceMonitor1821.asm
                     min2   0x000042       data     extern /home/jjmcd/Projects/PIC/PIC16/FurnaceMonitor1821.X/FurnaceMonitor1821.asm
                 mindelta   0x000048       data     extern /home/jjmcd/Projects/PIC/PIC16/FurnaceMonitor1821.X/FurnaceMonitor1821.asm
                      nib   0x00004d       data     static /home/jjmcd/Projects/PIC/PIC16/FurnaceMonitor1821.X/showBCD.asm
                 position   0x00004d       data     extern /home/jjmcd/Projects/PIC/PIC16/FurnaceMonitor1821.X/FurnaceMonitor1821.asm
                     rm_4   0x000021       data     static /home/jjmcd/Projects/PIC/PIC16/FurnaceMonitor1821.X/_divS16.asm
                  scratch   0x00002a       data     static /home/jjmcd/Projects/PIC/PIC16/FurnaceMonitor1821.X/calcDeltas.asm
                     sign   0x00002d       data     extern /home/jjmcd/Projects/PIC/PIC16/FurnaceMonitor1821.X/FurnaceMonitor1821.asm
                    sign2   0x000037       data     extern /home/jjmcd/Projects/PIC/PIC16/FurnaceMonitor1821.X/FurnaceMonitor1821.asm
                   sign_3   0x000024       data     static /home/jjmcd/Projects/PIC/PIC16/FurnaceMonitor1821.X/_divS16.asm
                     temp   0x00002e       data     extern /home/jjmcd/Projects/PIC/PIC16/FurnaceMonitor1821.X/FurnaceMonitor1821.asm
                    temp2   0x000038       data     extern /home/jjmcd/Projects/PIC/PIC16/FurnaceMonitor1821.X/FurnaceMonitor1821.asm
                  tempbuf   0x00002b       data     extern /home/jjmcd/Projects/PIC/PIC16/FurnaceMonitor1821.X/FurnaceMonitor1821.asm
                 tempbuf2   0x000035       data     extern /home/jjmcd/Projects/PIC/PIC16/FurnaceMonitor1821.X/FurnaceMonitor1821.asm
                   tictoc   0x00004d       data     static /home/jjmcd/Projects/PIC/PIC16/FurnaceMonitor1821.X/FurnaceMonitor1821.asm
                    tmp_3   0x00004d       data     static /home/jjmcd/Projects/PIC/PIC16/FurnaceMonitor1821.X/binBCD16.asm
                        x   0x00004c       data     static /home/jjmcd/Projects/PIC/PIC16/FurnaceMonitor1821.X/showBCD.asm
                    zeile   0x00004c       data     extern /home/jjmcd/Projects/PIC/PIC16/FurnaceMonitor1821.X/FurnaceMonitor1821.asm



                              Symbols - Sorted by Address
                     Name    Address   Location    Storage File                     
                ---------  ---------  ---------  --------- ---------                
                interrupt   0x000004    program     static /home/jjmcd/Projects/PIC/PIC16/FurnaceMonitor1821.X/FurnaceMonitor1821.asm
                  ShowBCD   0x000023    program     extern /home/jjmcd/Projects/PIC/PIC16/FurnaceMonitor1821.X/showBCD.asm
                     m029   0x00002e    program     static /home/jjmcd/Projects/PIC/PIC16/FurnaceMonitor1821.X/showBCD.asm
                     m030   0x000030    program     static /home/jjmcd/Projects/PIC/PIC16/FurnaceMonitor1821.X/showBCD.asm
                     m031   0x00003c    program     static /home/jjmcd/Projects/PIC/PIC16/FurnaceMonitor1821.X/showBCD.asm
                     m032   0x00003e    program     static /home/jjmcd/Projects/PIC/PIC16/FurnaceMonitor1821.X/showBCD.asm
                  getTemp   0x000040    program     extern /home/jjmcd/Projects/PIC/PIC16/FurnaceMonitor1821.X/getTemp.asm
                 convert1   0x000061    program     extern /home/jjmcd/Projects/PIC/PIC16/FurnaceMonitor1821.X/convert1.asm
                     m041   0x000065    program     static /home/jjmcd/Projects/PIC/PIC16/FurnaceMonitor1821.X/convert1.asm
                     m042   0x00006f    program     static /home/jjmcd/Projects/PIC/PIC16/FurnaceMonitor1821.X/convert1.asm
                     m043   0x00007b    program     static /home/jjmcd/Projects/PIC/PIC16/FurnaceMonitor1821.X/convert1.asm
                     m044   0x00008e    program     static /home/jjmcd/Projects/PIC/PIC16/FurnaceMonitor1821.X/convert1.asm
                     m045   0x00009a    program     static /home/jjmcd/Projects/PIC/PIC16/FurnaceMonitor1821.X/convert1.asm
                     m046   0x0000a8    program     static /home/jjmcd/Projects/PIC/PIC16/FurnaceMonitor1821.X/convert1.asm
                     m047   0x0000ab    program     static /home/jjmcd/Projects/PIC/PIC16/FurnaceMonitor1821.X/convert1.asm
                 convert2   0x0000ba    program     extern /home/jjmcd/Projects/PIC/PIC16/FurnaceMonitor1821.X/convert2.asm
                     m041   0x0000be    program     static /home/jjmcd/Projects/PIC/PIC16/FurnaceMonitor1821.X/convert2.asm
                     m042   0x0000c8    program     static /home/jjmcd/Projects/PIC/PIC16/FurnaceMonitor1821.X/convert2.asm
                     m043   0x0000d4    program     static /home/jjmcd/Projects/PIC/PIC16/FurnaceMonitor1821.X/convert2.asm
                     m044   0x0000e7    program     static /home/jjmcd/Projects/PIC/PIC16/FurnaceMonitor1821.X/convert2.asm
                     m045   0x0000f3    program     static /home/jjmcd/Projects/PIC/PIC16/FurnaceMonitor1821.X/convert2.asm
                     m046   0x000101    program     static /home/jjmcd/Projects/PIC/PIC16/FurnaceMonitor1821.X/convert2.asm
                     m047   0x000104    program     static /home/jjmcd/Projects/PIC/PIC16/FurnaceMonitor1821.X/convert2.asm
               calcDeltas   0x000113    program     extern /home/jjmcd/Projects/PIC/PIC16/FurnaceMonitor1821.X/calcDeltas.asm
                   skip01   0x000127    program     static /home/jjmcd/Projects/PIC/PIC16/FurnaceMonitor1821.X/calcDeltas.asm
                   skip02   0x00012a    program     static /home/jjmcd/Projects/PIC/PIC16/FurnaceMonitor1821.X/calcDeltas.asm
                   skip03   0x00012e    program     static /home/jjmcd/Projects/PIC/PIC16/FurnaceMonitor1821.X/calcDeltas.asm
                   skip04   0x000138    program     static /home/jjmcd/Projects/PIC/PIC16/FurnaceMonitor1821.X/calcDeltas.asm
                   skip05   0x00013b    program     static /home/jjmcd/Projects/PIC/PIC16/FurnaceMonitor1821.X/calcDeltas.asm
                   skip06   0x00013f    program     static /home/jjmcd/Projects/PIC/PIC16/FurnaceMonitor1821.X/calcDeltas.asm
                   skip07   0x000149    program     static /home/jjmcd/Projects/PIC/PIC16/FurnaceMonitor1821.X/calcDeltas.asm
                   skip08   0x00014c    program     static /home/jjmcd/Projects/PIC/PIC16/FurnaceMonitor1821.X/calcDeltas.asm
                   skip09   0x000150    program     static /home/jjmcd/Projects/PIC/PIC16/FurnaceMonitor1821.X/calcDeltas.asm
                   skip10   0x00015a    program     static /home/jjmcd/Projects/PIC/PIC16/FurnaceMonitor1821.X/calcDeltas.asm
                   skip11   0x00015d    program     static /home/jjmcd/Projects/PIC/PIC16/FurnaceMonitor1821.X/calcDeltas.asm
                   skip12   0x000161    program     static /home/jjmcd/Projects/PIC/PIC16/FurnaceMonitor1821.X/calcDeltas.asm
                   skip13   0x00016b    program     static /home/jjmcd/Projects/PIC/PIC16/FurnaceMonitor1821.X/calcDeltas.asm
                   skip14   0x00016e    program     static /home/jjmcd/Projects/PIC/PIC16/FurnaceMonitor1821.X/calcDeltas.asm
                   skip15   0x000172    program     static /home/jjmcd/Projects/PIC/PIC16/FurnaceMonitor1821.X/calcDeltas.asm
                   skip16   0x00017c    program     static /home/jjmcd/Projects/PIC/PIC16/FurnaceMonitor1821.X/calcDeltas.asm
                   skip17   0x00017f    program     static /home/jjmcd/Projects/PIC/PIC16/FurnaceMonitor1821.X/calcDeltas.asm
                   skip18   0x000183    program     static /home/jjmcd/Projects/PIC/PIC16/FurnaceMonitor1821.X/calcDeltas.asm
             showExtremes   0x000185    program     extern /home/jjmcd/Projects/PIC/PIC16/FurnaceMonitor1821.X/showExtremes.asm
                     main   0x0001b8    program     static /home/jjmcd/Projects/PIC/PIC16/FurnaceMonitor1821.X/FurnaceMonitor1821.asm
                     m040   0x0001eb    program     static /home/jjmcd/Projects/PIC/PIC16/FurnaceMonitor1821.X/FurnaceMonitor1821.asm
                    wait0   0x0001fe    program     static /home/jjmcd/Projects/PIC/PIC16/FurnaceMonitor1821.X/FurnaceMonitor1821.asm
                 continue   0x000205    program     static /home/jjmcd/Projects/PIC/PIC16/FurnaceMonitor1821.X/FurnaceMonitor1821.asm
              MasterReset   0x000470    program     extern /home/jjmcd/Projects/PIC/PIC16/FurnaceMonitor1821.X/masterReset.asm
                     m014   0x000477    program     static /home/jjmcd/Projects/PIC/PIC16/FurnaceMonitor1821.X/masterReset.asm
                     m015   0x000479    program     static /home/jjmcd/Projects/PIC/PIC16/FurnaceMonitor1821.X/masterReset.asm
                     m016   0x00047b    program     static /home/jjmcd/Projects/PIC/PIC16/FurnaceMonitor1821.X/masterReset.asm
                     m012   0x00047d    program     static /home/jjmcd/Projects/PIC/PIC16/FurnaceMonitor1821.X/pollStatus.asm
               PollStatus   0x00047d    program     extern /home/jjmcd/Projects/PIC/PIC16/FurnaceMonitor1821.X/pollStatus.asm
                 ReadByte   0x000485    program     extern /home/jjmcd/Projects/PIC/PIC16/FurnaceMonitor1821.X/readBYTE.asm
                     m021   0x00048a    program     static /home/jjmcd/Projects/PIC/PIC16/FurnaceMonitor1821.X/readBYTE.asm
                     m022   0x0004a1    program     static /home/jjmcd/Projects/PIC/PIC16/FurnaceMonitor1821.X/readBYTE.asm
                     m023   0x0004a4    program     static /home/jjmcd/Projects/PIC/PIC16/FurnaceMonitor1821.X/readBYTE.asm
                     m024   0x0004aa    program     static /home/jjmcd/Projects/PIC/PIC16/FurnaceMonitor1821.X/readBYTE.asm
                     m025   0x0004c1    program     static /home/jjmcd/Projects/PIC/PIC16/FurnaceMonitor1821.X/readBYTE.asm
                     m026   0x0004c3    program     static /home/jjmcd/Projects/PIC/PIC16/FurnaceMonitor1821.X/readBYTE.asm
                 SendByte   0x0004c5    program     extern /home/jjmcd/Projects/PIC/PIC16/FurnaceMonitor1821.X/sendByte.asm
                     m017   0x0004c9    program     static /home/jjmcd/Projects/PIC/PIC16/FurnaceMonitor1821.X/sendByte.asm
                     m018   0x0004df    program     static /home/jjmcd/Projects/PIC/PIC16/FurnaceMonitor1821.X/sendByte.asm
                     m019   0x0004e2    program     static /home/jjmcd/Projects/PIC/PIC16/FurnaceMonitor1821.X/sendByte.asm
                     m020   0x0004e9    program     static /home/jjmcd/Projects/PIC/PIC16/FurnaceMonitor1821.X/sendByte.asm
                 init1821   0x0004ea    program     extern /home/jjmcd/Projects/PIC/PIC16/FurnaceMonitor1821.X/init1821.asm
                 getTemp2   0x0004f2    program     extern /home/jjmcd/Projects/PIC/PIC16/FurnaceMonitor1821.X/SecondDS.asm
             MasterReset2   0x000513    program     extern /home/jjmcd/Projects/PIC/PIC16/FurnaceMonitor1821.X/SecondDS.asm
                     m014   0x00051a    program     static /home/jjmcd/Projects/PIC/PIC16/FurnaceMonitor1821.X/SecondDS.asm
                     m015   0x00051c    program     static /home/jjmcd/Projects/PIC/PIC16/FurnaceMonitor1821.X/SecondDS.asm
                     m016   0x00051e    program     static /home/jjmcd/Projects/PIC/PIC16/FurnaceMonitor1821.X/SecondDS.asm
              PollStatus2   0x000520    program     extern /home/jjmcd/Projects/PIC/PIC16/FurnaceMonitor1821.X/SecondDS.asm
                     m012   0x000520    program     static /home/jjmcd/Projects/PIC/PIC16/FurnaceMonitor1821.X/SecondDS.asm
                ReadByte2   0x000528    program     extern /home/jjmcd/Projects/PIC/PIC16/FurnaceMonitor1821.X/SecondDS.asm
                     m021   0x00052d    program     static /home/jjmcd/Projects/PIC/PIC16/FurnaceMonitor1821.X/SecondDS.asm
                     m022   0x000544    program     static /home/jjmcd/Projects/PIC/PIC16/FurnaceMonitor1821.X/SecondDS.asm
                     m023   0x000547    program     static /home/jjmcd/Projects/PIC/PIC16/FurnaceMonitor1821.X/SecondDS.asm
                     m024   0x00054d    program     static /home/jjmcd/Projects/PIC/PIC16/FurnaceMonitor1821.X/SecondDS.asm
                     m025   0x000564    program     static /home/jjmcd/Projects/PIC/PIC16/FurnaceMonitor1821.X/SecondDS.asm
                     m026   0x000566    program     static /home/jjmcd/Projects/PIC/PIC16/FurnaceMonitor1821.X/SecondDS.asm
                SendByte2   0x000568    program     extern /home/jjmcd/Projects/PIC/PIC16/FurnaceMonitor1821.X/SecondDS.asm
                     m017   0x00056c    program     static /home/jjmcd/Projects/PIC/PIC16/FurnaceMonitor1821.X/SecondDS.asm
                     m018   0x000582    program     static /home/jjmcd/Projects/PIC/PIC16/FurnaceMonitor1821.X/SecondDS.asm
                     m019   0x000585    program     static /home/jjmcd/Projects/PIC/PIC16/FurnaceMonitor1821.X/SecondDS.asm
                     m020   0x00058c    program     static /home/jjmcd/Projects/PIC/PIC16/FurnaceMonitor1821.X/SecondDS.asm
                init18212   0x00058d    program     extern /home/jjmcd/Projects/PIC/PIC16/FurnaceMonitor1821.X/SecondDS.asm
               Delay100us   0x000600    program     extern /home/jjmcd/Projects/PIC/PIC16/FurnaceMonitor1821.X/del100us.asm
                     m010   0x000603    program     static /home/jjmcd/Projects/PIC/PIC16/FurnaceMonitor1821.X/del100us.asm
                     m011   0x000605    program     static /home/jjmcd/Projects/PIC/PIC16/FurnaceMonitor1821.X/del100us.asm
                Delay10us   0x00060b    program     extern /home/jjmcd/Projects/PIC/PIC16/FurnaceMonitor1821.X/del10us.asm
                 Delay1ms   0x000612    program     extern /home/jjmcd/Projects/PIC/PIC16/FurnaceMonitor1821.X/del1ms.asm
                     m008   0x000615    program     static /home/jjmcd/Projects/PIC/PIC16/FurnaceMonitor1821.X/del1ms.asm
                     m009   0x000617    program     static /home/jjmcd/Projects/PIC/PIC16/FurnaceMonitor1821.X/del1ms.asm
               Delay1ms32   0x00061d    program     extern /home/jjmcd/Projects/PIC/PIC16/FurnaceMonitor1821.X/del1ms32.asm
                     m008   0x000620    program     static /home/jjmcd/Projects/PIC/PIC16/FurnaceMonitor1821.X/del1ms32.asm
                     m009   0x000622    program     static /home/jjmcd/Projects/PIC/PIC16/FurnaceMonitor1821.X/del1ms32.asm
               _divS16_16   0x000650    program     extern /home/jjmcd/Projects/PIC/PIC16/FurnaceMonitor1821.X/_divS16.asm
                     m001   0x000659    program     static /home/jjmcd/Projects/PIC/PIC16/FurnaceMonitor1821.X/_divS16.asm
                     m002   0x000663    program     static /home/jjmcd/Projects/PIC/PIC16/FurnaceMonitor1821.X/_divS16.asm
                     m003   0x00066a    program     static /home/jjmcd/Projects/PIC/PIC16/FurnaceMonitor1821.X/_divS16.asm
                     m004   0x00066b    program     static /home/jjmcd/Projects/PIC/PIC16/FurnaceMonitor1821.X/_divS16.asm
                     m005   0x000676    program     static /home/jjmcd/Projects/PIC/PIC16/FurnaceMonitor1821.X/_divS16.asm
                     m006   0x00067a    program     static /home/jjmcd/Projects/PIC/PIC16/FurnaceMonitor1821.X/_divS16.asm
                     m007   0x000681    program     static /home/jjmcd/Projects/PIC/PIC16/FurnaceMonitor1821.X/_divS16.asm
               BinToBCD16   0x000683    program     extern /home/jjmcd/Projects/PIC/PIC16/FurnaceMonitor1821.X/binBCD16.asm
                     m027   0x000689    program     static /home/jjmcd/Projects/PIC/PIC16/FurnaceMonitor1821.X/binBCD16.asm
                     m028   0x000691    program     static /home/jjmcd/Projects/PIC/PIC16/FurnaceMonitor1821.X/binBCD16.asm
                   adjBCD   0x00069b    program     static /home/jjmcd/Projects/PIC/PIC16/FurnaceMonitor1821.X/binBCD16.asm
             LCDWriteByte   0x000710    program     extern /home/jjmcd/Projects/PIC/PIC16/FurnaceMonitor1821.X/LCD.asm
                   LCDPos   0x000735    program     extern /home/jjmcd/Projects/PIC/PIC16/FurnaceMonitor1821.X/LCD.asm
                     m033   0x000743    program     static /home/jjmcd/Projects/PIC/PIC16/FurnaceMonitor1821.X/LCD.asm
                     m034   0x000747    program     static /home/jjmcd/Projects/PIC/PIC16/FurnaceMonitor1821.X/LCD.asm
                     m035   0x00074b    program     static /home/jjmcd/Projects/PIC/PIC16/FurnaceMonitor1821.X/LCD.asm
                     m036   0x00074c    program     static /home/jjmcd/Projects/PIC/PIC16/FurnaceMonitor1821.X/LCD.asm
                   LCDCls   0x000755    program     extern /home/jjmcd/Projects/PIC/PIC16/FurnaceMonitor1821.X/LCD.asm
                  LCDInit   0x000763    program     extern /home/jjmcd/Projects/PIC/PIC16/FurnaceMonitor1821.X/LCD.asm
                     m037   0x000776    program     static /home/jjmcd/Projects/PIC/PIC16/FurnaceMonitor1821.X/LCD.asm
                     m038   0x00077c    program     static /home/jjmcd/Projects/PIC/PIC16/FurnaceMonitor1821.X/LCD.asm
                     m039   0x00078f    program     static /home/jjmcd/Projects/PIC/PIC16/FurnaceMonitor1821.X/LCD.asm
                  lcdport   0x000020       data     static /home/jjmcd/Projects/PIC/PIC16/FurnaceMonitor1821.X/LCD.asm
                     rm_4   0x000021       data     static /home/jjmcd/Projects/PIC/PIC16/FurnaceMonitor1821.X/_divS16.asm
                counter_8   0x000023       data     static /home/jjmcd/Projects/PIC/PIC16/FurnaceMonitor1821.X/_divS16.asm
                   sign_3   0x000024       data     static /home/jjmcd/Projects/PIC/PIC16/FurnaceMonitor1821.X/_divS16.asm
                       B0   0x000025       data     extern /home/jjmcd/Projects/PIC/PIC16/FurnaceMonitor1821.X/binBCD16.asm
                       B1   0x000026       data     extern /home/jjmcd/Projects/PIC/PIC16/FurnaceMonitor1821.X/binBCD16.asm
                       R0   0x000027       data     extern /home/jjmcd/Projects/PIC/PIC16/FurnaceMonitor1821.X/binBCD16.asm
                       R1   0x000028       data     extern /home/jjmcd/Projects/PIC/PIC16/FurnaceMonitor1821.X/binBCD16.asm
                       R2   0x000029       data     extern /home/jjmcd/Projects/PIC/PIC16/FurnaceMonitor1821.X/binBCD16.asm
                  scratch   0x00002a       data     static /home/jjmcd/Projects/PIC/PIC16/FurnaceMonitor1821.X/calcDeltas.asm
                  tempbuf   0x00002b       data     extern /home/jjmcd/Projects/PIC/PIC16/FurnaceMonitor1821.X/FurnaceMonitor1821.asm
                     sign   0x00002d       data     extern /home/jjmcd/Projects/PIC/PIC16/FurnaceMonitor1821.X/FurnaceMonitor1821.asm
                     temp   0x00002e       data     extern /home/jjmcd/Projects/PIC/PIC16/FurnaceMonitor1821.X/FurnaceMonitor1821.asm
                 countrem   0x000030       data     extern /home/jjmcd/Projects/PIC/PIC16/FurnaceMonitor1821.X/FurnaceMonitor1821.asm
                 countdeg   0x000032       data     extern /home/jjmcd/Projects/PIC/PIC16/FurnaceMonitor1821.X/FurnaceMonitor1821.asm
                      i_2   0x000034       data     static /home/jjmcd/Projects/PIC/PIC16/FurnaceMonitor1821.X/FurnaceMonitor1821.asm
                 tempbuf2   0x000035       data     extern /home/jjmcd/Projects/PIC/PIC16/FurnaceMonitor1821.X/FurnaceMonitor1821.asm
                    sign2   0x000037       data     extern /home/jjmcd/Projects/PIC/PIC16/FurnaceMonitor1821.X/FurnaceMonitor1821.asm
                    temp2   0x000038       data     extern /home/jjmcd/Projects/PIC/PIC16/FurnaceMonitor1821.X/FurnaceMonitor1821.asm
                countrem2   0x00003a       data     extern /home/jjmcd/Projects/PIC/PIC16/FurnaceMonitor1821.X/FurnaceMonitor1821.asm
                countdeg2   0x00003c       data     extern /home/jjmcd/Projects/PIC/PIC16/FurnaceMonitor1821.X/FurnaceMonitor1821.asm
                     min1   0x00003e       data     extern /home/jjmcd/Projects/PIC/PIC16/FurnaceMonitor1821.X/FurnaceMonitor1821.asm
                     max1   0x000040       data     extern /home/jjmcd/Projects/PIC/PIC16/FurnaceMonitor1821.X/FurnaceMonitor1821.asm
                     min2   0x000042       data     extern /home/jjmcd/Projects/PIC/PIC16/FurnaceMonitor1821.X/FurnaceMonitor1821.asm
                     max2   0x000044       data     extern /home/jjmcd/Projects/PIC/PIC16/FurnaceMonitor1821.X/FurnaceMonitor1821.asm
                    delta   0x000046       data     extern /home/jjmcd/Projects/PIC/PIC16/FurnaceMonitor1821.X/FurnaceMonitor1821.asm
                 mindelta   0x000048       data     extern /home/jjmcd/Projects/PIC/PIC16/FurnaceMonitor1821.X/FurnaceMonitor1821.asm
                 maxdelta   0x00004a       data     extern /home/jjmcd/Projects/PIC/PIC16/FurnaceMonitor1821.X/FurnaceMonitor1821.asm
                        x   0x00004c       data     static /home/jjmcd/Projects/PIC/PIC16/FurnaceMonitor1821.X/showBCD.asm
                      i_2   0x00004c       data     static /home/jjmcd/Projects/PIC/PIC16/FurnaceMonitor1821.X/convert2.asm
                      i_2   0x00004c       data     static /home/jjmcd/Projects/PIC/PIC16/FurnaceMonitor1821.X/convert1.asm
                        i   0x00004c       data     extern /home/jjmcd/Projects/PIC/PIC16/FurnaceMonitor1821.X/FurnaceMonitor1821.asm
                    zeile   0x00004c       data     extern /home/jjmcd/Projects/PIC/PIC16/FurnaceMonitor1821.X/FurnaceMonitor1821.asm
                   arg1_8   0x00004c       data     extern /home/jjmcd/Projects/PIC/PIC16/FurnaceMonitor1821.X/_divS16.asm
                       bi   0x00004c       data     static /home/jjmcd/Projects/PIC/PIC16/FurnaceMonitor1821.X/SecondDS.asm
                       bi   0x00004c       data     static /home/jjmcd/Projects/PIC/PIC16/FurnaceMonitor1821.X/readBYTE.asm
                       by   0x00004c       data     static /home/jjmcd/Projects/PIC/PIC16/FurnaceMonitor1821.X/SecondDS.asm
                       by   0x00004c       data     static /home/jjmcd/Projects/PIC/PIC16/FurnaceMonitor1821.X/FurnaceMonitor1821.asm
                       by   0x00004c       data     static /home/jjmcd/Projects/PIC/PIC16/FurnaceMonitor1821.X/sendByte.asm
               counter_13   0x00004c       data     static /home/jjmcd/Projects/PIC/PIC16/FurnaceMonitor1821.X/binBCD16.asm
                    tmp_3   0x00004d       data     static /home/jjmcd/Projects/PIC/PIC16/FurnaceMonitor1821.X/binBCD16.asm
                   tictoc   0x00004d       data     static /home/jjmcd/Projects/PIC/PIC16/FurnaceMonitor1821.X/FurnaceMonitor1821.asm
                      buf   0x00004d       data     static /home/jjmcd/Projects/PIC/PIC16/FurnaceMonitor1821.X/SecondDS.asm
                      buf   0x00004d       data     static /home/jjmcd/Projects/PIC/PIC16/FurnaceMonitor1821.X/readBYTE.asm
                 position   0x00004d       data     extern /home/jjmcd/Projects/PIC/PIC16/FurnaceMonitor1821.X/FurnaceMonitor1821.asm
                      nib   0x00004d       data     static /home/jjmcd/Projects/PIC/PIC16/FurnaceMonitor1821.X/showBCD.asm
                   buff_2   0x00004e       data     extern /home/jjmcd/Projects/PIC/PIC16/FurnaceMonitor1821.X/FurnaceMonitor1821.asm
                   arg2_8   0x00004e       data     extern /home/jjmcd/Projects/PIC/PIC16/FurnaceMonitor1821.X/_divS16.asm
                      dat   0x000050       data     extern /home/jjmcd/Projects/PIC/PIC16/FurnaceMonitor1821.X/FurnaceMonitor1821.asm
                     buff   0x000051       data     extern /home/jjmcd/Projects/PIC/PIC16/FurnaceMonitor1821.X/FurnaceMonitor1821.asm
                     mask   0x000052       data     static /home/jjmcd/Projects/PIC/PIC16/FurnaceMonitor1821.X/readBYTE.asm
                     mask   0x000052       data     static /home/jjmcd/Projects/PIC/PIC16/FurnaceMonitor1821.X/sendByte.asm
                     mask   0x000052       data     static /home/jjmcd/Projects/PIC/PIC16/FurnaceMonitor1821.X/SecondDS.asm
                    count   0x000053       data     static /home/jjmcd/Projects/PIC/PIC16/FurnaceMonitor1821.X/SecondDS.asm
                    count   0x000053       data     static /home/jjmcd/Projects/PIC/PIC16/FurnaceMonitor1821.X/sendByte.asm
                    count   0x000053       data     static /home/jjmcd/Projects/PIC/PIC16/FurnaceMonitor1821.X/readBYTE.asm
                    delay   0x000054       data     static /home/jjmcd/Projects/PIC/PIC16/FurnaceMonitor1821.X/del1ms.asm
                    delay   0x000054       data     static /home/jjmcd/Projects/PIC/PIC16/FurnaceMonitor1821.X/del1ms32.asm
                  delay_2   0x000054       data     static /home/jjmcd/Projects/PIC/PIC16/FurnaceMonitor1821.X/del100us.asm
                      del   0x000055       data     static /home/jjmcd/Projects/PIC/PIC16/FurnaceMonitor1821.X/del1ms.asm
                      del   0x000055       data     static /home/jjmcd/Projects/PIC/PIC16/FurnaceMonitor1821.X/del1ms32.asm
                      del   0x000055       data     static /home/jjmcd/Projects/PIC/PIC16/FurnaceMonitor1821.X/del100us.asm


